:020000040000FA
:100000000C9463000C948B000C948B000C948B006C
:100010000C948B000C948B000C948B000C94220598
:100020000C948B000C948B000C948B000C94D605D4
:100030000C948B000C948B000C948B000C948B0014
:100040000C94D8040C948B000C94A4050C947E059D
:100050000C948B000C948B000C948B000C948B00F4
:100060000C948B000C948B000000000023002600F1
:10007000290000000000240027002A0000000008DA
:10008000000201000003040700000000000000005F
:10009000010204081020408001020408102001021F
:1000A0000408102000000000250028002B00040494
:1000B0000404040404040202020202020303030310
:1000C00003030200D70611241FBECFEFD8E0DEBF26
:1000D000CDBF11E0A0E0B1E0E2E4F7E102C005909D
:1000E0000D92AA34B107D9F722E0AAE4B1E001C029
:1000F0001D92A234B207E1F710E0C3E6D0E004C0DD
:100100002197FE010E94990BC236D107C9F70E94C0
:100110004E070C949F0B0C94000090E0FC01E458F7
:10012000FF4F2491FC01E057FF4F3491FC01E25551
:10013000FF4FE491EE23C9F0222339F0233001F17F
:10014000A8F4213019F1223029F1F0E0EE0FFF1F61
:10015000EC55FF4FA591B4918FB7F894EC916111D4
:1001600026C030953E233C938FBF08952730A9F0D9
:100170002830C9F0243049F7809180008F7D03C07A
:10018000809180008F7780938000DFCF84B58F7758
:1001900084BDDBCF84B58F7DFBCF8091B0008F779E
:1001A0008093B000D2CF8091B0008F7DF9CF3E2BED
:1001B000DACFCF93DF9390E0FC01E057FF4F24911B
:1001C00082559F4FFC0184918823D1F090E0880FE5
:1001D000991FFC01EE58FF4FA591B491FC01EC551D
:1001E000FF4FC591D49161110EC09FB7F8948C91C7
:1001F000E22FE0958E238C932881E223E8839FBF32
:10020000DF91CF9108958FB7F894EC91E22BEC93A6
:100210008FBFF6CFCF92DF92EF92FF921F93CF93D3
:10022000DF936B017C01809102018B3051F08F3F95
:1002300049F1DF91CF911F91FF90EF90DF90CF9028
:100240000895E2ECF0E0C491C7FDF3CF61E08BE0EC
:100250000E94D900CC2309F483C0C23009F090C0B9
:100260008091B100887F83608093B1002FEF3FEFD2
:10027000A901D9EFC114D104E104F10409F4D4C0F7
:10028000D9EF7CC08BE080930201E2ECF0E0C491F6
:10029000CF3F79F2C13021F150F0C23009F43EC0B5
:1002A000C7FDC7CF61E08BE00E94D900D6CF14BC58
:1002B00015BC84B5826084BD85B5816085BDE9EBE0
:1002C000F0E0E491F0E0EE0FFF1FEC55FF4F859159
:1002D0009491EBE9F0E0E491E0936D01C0E0B6CFDA
:1002E000109280001092810080918100886080933C
:1002F000810080918100816080938100E9EBF0E0D2
:10030000E491F0E0EE0FFF1FEC55FF4F85919491C3
:10031000EBE9F0E0E491E0936C0198CF1092B0002B
:100320001092B1008091B00082608093B000809103
:10033000B10081608093B100E9EBF0E0E491F0E07E
:10034000EE0FFF1FEC55FF4F8591949190936B0139
:1003500080936A01EBE9F0E0E491E093690176CFE4
:1003600085B5887F836085BD2FEF3FEFA901DCE76E
:10037000C114D104E104F104A1F1DCE710E01FC0D5
:10038000C13099F480918100887F816080938100E1
:100390002FEF3FEFA901DFE31FE1C114D104E10416
:1003A000F10471F1DFE31FE10AC0DFE31FE12FEF8A
:1003B0003FEFA901C114D104E104F10461F0A0ED03
:1003C000B7E0A70196010E94180A28EE33E040E04A
:1003D00050E00E942B0AC13099F0C23029F1C111BE
:1003E00028CFD7BD209376013093770140937801D1
:1003F0005093790180916E00826080936E0019CFD6
:100400008D2F912F90938900809388002093720103
:1004100030937301409374015093750180916F0084
:10042000826080936F0005CFD093B30020936E015C
:1004300030936F014093700150937101809170006F
:10044000826080937000F5CE3FB7F894809165018B
:1004500090916601A0916701B091680126B5A89BB3
:1004600005C02F3F19F00196A11DB11D3FBFBA2F46
:10047000A92F982F8827BC01CD01620F711D811D06
:10048000911D42E0660F771F881F991F4A95D1F78B
:1004900008958F929F92AF92BF92CF92DF92EF9288
:1004A000FF924B015C010E9424026B017C010E94BF
:1004B00024026C197D098E099F09683E73408105ED
:1004C0009105A8F321E0821A9108A108B10888EEED
:1004D000C80E83E0D81EE11CF11C81149104A10414
:1004E000B10429F7FF90EF90DF90CF90BF90AF90CD
:1004F0009F908F9008959091020189130BC0E2ECB8
:10050000F0E0E4919FEF90930201E13049F028F090
:10051000E23061F060E00C948D0010926E00FACF32
:1005200090916F009D7F90936F00F4CF9091700039
:100530009D7F9093700091E09093B0009091B100F6
:10054000987F94609093B1001092B300E3CFAF9284
:10055000BF92CF92DF92EF92FF920F931F93CF93B0
:10056000DF936C017B018B01040F151FEB015E0112
:10057000AE18BF08C017D10759F06991D601ED91A7
:10058000FC910190F081E02DC6010995892B79F746
:10059000C501DF91CF911F910F91FF90EF90DF90F8
:1005A000CF90BF90AF900895FC01538D448D252FBF
:1005B00030E0842F90E0821B930B541710F0CF96FD
:1005C000089501970895FC01918D828D981761F02F
:1005D000A28DAE0FBF2FB11D5D968C91928D9F5F46
:1005E0009F73928F90E008958FEF9FEF0895FC0125
:1005F000918D828D981731F0828DE80FF11D858DD8
:1006000090E008958FEF9FEF0895FC01918D228D6A
:10061000892F90E0805C9F4F821B91098F739927EF
:1006200008958AE791E00E94050321E0892B09F4EF
:1006300020E0822F089580E090E0892B29F00E942D
:10064000110381110C9400000895FC01A48DA80FE2
:10065000B92FB11DA35ABF4F2C91848D90E0019604
:100660008F739927848FA689B7892C93A089B18924
:100670008C91837080648C93938D848D981306C0C5
:100680000288F389E02D80818F7D80830895EF9229
:10069000FF920F931F93CF93DF93EC0181E0888F3C
:1006A0009B8D8C8D98131AC0E889F989808185FF0C
:1006B00015C09FB7F894EE89FF896083E889F989AE
:1006C00080818370806480839FBF81E090E0DF91B0
:1006D000CF911F910F91FF90EF900895F62E0B8D03
:1006E00010E00F5F1F4F0F731127E02E8C8D8E11BE
:1006F0000CC00FB607FCFACFE889F989808185FF25
:10070000F5CFCE010E942503F1CFEB8DEC0FFD2F2D
:10071000F11DE35AFF4FF0829FB7F8940B8FEA89DF
:10072000FB8980818062CFCFCF93DF93EC01888DEE
:100730008823B9F0AA89BB89E889F9898C9185FD5C
:1007400003C0808186FD0DC00FB607FCF7CF8C91EA
:1007500085FFF2CF808185FFEDCFCE010E9425037A
:10076000E9CFDF91CF9108958F929F92AF92BF9280
:10077000FF920F931F93CF93DF93FC01F0808BE0E8
:100780008F1508F44AC0828108E512E0081B1109A0
:1007900087FD1395000F111F000F111F8181C8E8FD
:1007A000D0E0C81BD10987FDD395CC0FDD1FCC0F3E
:1007B000DD1F4E010D2E000CAA08BB089801012E6A
:1007C000000C440B550B281939094A095B09DB0158
:1007D0000E94230A24EB30E040E050E00E94F90937
:1007E000820E931EA41EB51E8C169D062CF0E801E9
:1007F000801691060CF4E4012297CC0FDD1F2FB771
:10080000F8948F2D90E0FC01EE0FFF1FE80FF91F09
:10081000E95EFD4FD283C1832FBFDF91CF911F913E
:100820000F91FF90BF90AF909F908F9008951F936E
:10083000CF93DF93EC01162F88818C3008F04EC0E7
:1008400061E0812F0E94D9008881282F30E0F901D2
:10085000EE0FFF1FE20FF31FE95EFD4F1F73608174
:10086000607C612B608319821A822CE0622F0E94C7
:100870008D0B829FB001112430E020E0AB01420FCC
:10088000531FFA01EE0FFF1FE40FF51FE95EFD4F46
:10089000908196FD16C02F5F3F4F2C30310571F7C8
:1008A00081110FC01092800082E08093810010922D
:1008B000850010928400B19A80916F0082608093CD
:1008C0006F00E8818E2F90E0FC01EE0FFF1FE80F14
:1008D000F91FE95EFD4F8081806480838881DF910C
:1008E000CF911F910895FC0101900020E9F7319705
:1008F000AF01481B590BBC018AE791E00C94A70299
:100900000F931F93CF93DF93D82FC62F60E00E94E1
:100910008D0083E090E00197F1F761E08D2F0E9458
:100920008D0083E290E00197F1F760E08D2F0E9447
:100930008D00D0E0FE01E057FF4F6491FE01E255CB
:10094000FF4FE491F0E0EE0FFF1FE859FF4F859154
:10095000949100E315E720E030E0462F0E949206D4
:100960006115710581059105F9F06F5F7F4F8F4F1C
:100970009F4F9F706115710581059105A9F00E9437
:10098000920A26E933E44BE05DE30E94F80A20E096
:1009900030E040E05FE30E94F80A0E945C0ADF91C9
:1009A000CF911F910F9108956FEF7FEFCB01F7CF9C
:1009B0001F920F920FB60F9211242F933F938F9394
:1009C0009F93AF93BF938091610190916201A09139
:1009D0006301B09164013091600123E0230F2D3752
:1009E00058F50196A11DB11D20936001809361010E
:1009F00090936201A0936301B093640180916501BB
:100A000090916601A0916701B09168010196A11DC6
:100A1000B11D8093650190936601A0936701B09327
:100A20006801BF91AF919F918F913F912F910F904E
:100A30000FBE0F901F90189526E8230F0296A11D58
:100A4000B11DD2CF1F920F920FB60F9211242F9388
:100A50003F934F935F936F937F938F939F93AF9346
:100A6000BF93EF93FF9380916E0190916F01A091DE
:100A70007001B0917101892B8A2B8B2BD1F1909150
:100A80006901E0916A01F0916B018081892780837F
:100A900080916E0190916F01A0917001B0917101F0
:100AA000181619061A061B069CF480916E01909187
:100AB0006F01A0917001B09171010197A109B10975
:100AC00080936E0190936F01A0937001B0937101B8
:100AD000FF91EF91BF91AF919F918F917F916F9116
:100AE0005F914F913F912F910F900FBE0F901F90EC
:100AF0001895809102010E947B02EACF1F920F920B
:100B00000FB60F9211242F933F934F935F936F93E0
:100B10007F938F939F93AF93BF93EF93FF938AE756
:100B200091E00E942503FF91EF91BF91AF919F91BA
:100B30008F917F916F915F914F913F912F910F9086
:100B40000FBE0F901F9018951F920F920FB60F9225
:100B500011242F938F939F93EF93FF93E0918A013A
:100B6000F0918B018081E0919001F091910182FDE3
:100B70001BC09081809193018F5F8F7320919401AE
:100B8000821741F0E0919301F0E0E658FE4F958F17
:100B900080939301FF91EF919F918F912F910F90EF
:100BA0000FBE0F901F9018958081F4CF1F920F9267
:100BB0000FB60F9211242F933F934F935F936F9330
:100BC0007F938F939F93AF93BF93CF93DF93EF93D5
:100BD000FF9380914A01C0913B02D0E087FF24C07F
:100BE000109285001092840080914A018F5F80935B
:100BF0004A0180914A01082E000C990B8C179D0721
:100C000024F480914A018C30C4F180918400909149
:100C10008500049680349C4908F47AC08091840051
:100C200090918500049676C080914A01082E000CB0
:100C3000990B8C179D07C4F6E0914A018E2FEE0F99
:100C4000990BFC01EE0FFF1FE80FF91FE95EFD4F46
:100C5000808186FFC9CFE0914A018E2FEE0F990B5C
:100C6000FC01EE0FFF1FE80FF91FE95EFD4F8081C9
:100C700060E08F730E948D00B7CF20918400309187
:100C80008500E0914A018E2FEE0F990BFC01EE0FCB
:100C9000FF1FE80FF91FE95EFD4F81819281820FEE
:100CA000931F9093890080938800E0914A018E2FD2
:100CB000EE0F990BFC01EE0FFF1FE80FF91FE95E25
:100CC000FD4F808186FF11C0E0914A018E2FEE0F0B
:100CD000990BFC01EE0FFF1FE80FF91FE95EFD4FB6
:100CE000808161E08F730E948D00FF91EF91DF9111
:100CF000CF91BF91AF919F918F917F916F915F91B4
:100D00004F913F912F910F900FBE0F901F9018950C
:100D100080E49CE990938900809388008FEF809312
:100D20004A01E3CFCF92DF92EF92FF920F931F938E
:100D3000E82FF92F05C0015011092109310961F18E
:100D4000908196239417B9F305C001501109210928
:100D5000310911F1908196239413F7CFC12CD12C36
:100D6000E12CF12C0AC08FEFC81AD80AE80AF80A59
:100D70000C151D052E053F0579F08081862384170B
:100D800091F36C2D7D2D8E2D9F2D1F910F91FF9036
:100D9000EF90DF90CF90089560E070E080E090E009
:100DA0001F910F91FF90EF90DF90CF9008951092D8
:100DB0007D0110927C0188EE93E0A0E0B0E080938A
:100DC0007E0190937F01A0938001B093810187E021
:100DD00091E090937B0180937A0185EC90E0909371
:100DE00087018093860184EC90E090938901809341
:100DF000880180EC90E090938B0180938A0181ECD4
:100E000090E090938D0180938C0182EC90E0909320
:100E10008F0180938E0186EC90E0909391018093F6
:100E200090011092930110929401109295011092EA
:100E3000960180913B028C3048F591E0980F909399
:100E40003B0280933F0290E0FC01EE0FFF1FE80F92
:100E5000F91FE95EFD4F88EB9BE0928381838091CF
:100E60003B028C30B8F491E0980F90933B02809352
:100E70003C0290E0FC01EE0FFF1FE80FF91FE95E56
:100E8000FD4F88EB9BE09283818308958FEF8093E1
:100E90003F02E5CF8FEF80933C020895CF93DF931D
:100EA000CDB7DEB7A1970FB6F894DEBF0FBECDBFAA
:100EB000789484B5826084BD84B5816084BD85B535
:100EC000826085BD85B5816085BD80916E00816041
:100ED00080936E00109281008091810082608093E7
:100EE00081008091810081608093810080918000E9
:100EF0008160809380008091B10084608093B10014
:100F00008091B00081608093B00080917A0084600D
:100F100080937A0080917A00826080937A00809139
:100F20007A00816080937A0080917A008068809353
:100F30007A001092C100E0918A01F0918B0182E069
:100F40008083E0918601F09187011082E091880111
:100F5000F09189018FEC808310929201E0918E01D3
:100F6000F0918F0186E08083E0918C01F0918D01FA
:100F7000808180618083E0918C01F0918D0180817E
:100F800088608083E0918C01F0918D018081806880
:100F90008083E0918C01F0918D0180818F7D808331
:100FA00061E087E00E94D90060E086E00E94D900FD
:100FB00061E085E00E94D90060E084E00E94D900F1
:100FC00061E08BE00E94D90061E08CE00E94D900D2
:100FD00060E08BE00E948D0060E08CE00E948D005C
:100FE00069E070E08FE392E00E9417046AE070E02D
:100FF0008CE392E00E94170470E060E08FE392E0DF
:101000000E94B40370E060E08CE392E00E94B403BD
:1010100061E08CE00E948D0060E570E080E090E08F
:101020000E940A0166E970E080E090E00E944902B7
:1010300060E08CE00E948D002AE0422E512C612C51
:10104000712C222423948FB7F894C0906101D09022
:101050006201E0906301F09064018FBF8AE791E044
:101060000E94050318161906ECF48AE791E00E9425
:10107000E3028F7D8634B1F480915F0121E0822705
:1010800080935F018CE191E00E94730480915F0185
:101090008111ACC185E191E00E94730482E391E08B
:1010A0000E94730480915B0190915C01A0915D01AD
:1010B000B0915E01A7019601281B390B4A0B5B0B0F
:1010C000DA01C901803D9740A105B10508F47CC053
:1010D000C0925B01D0925C01E0925D01F0925E01F2
:1010E00094E0392E10E000E0812C912C540166E050
:1010F00087E00E948004161617061806190634F4B5
:10110000860E971EA81EB91E0F5F1F4F68E270E083
:1011100080E090E00E9449023A943110E8CF011536
:10112000110509F4FEC09801110F440B550BC501C0
:10113000B4010E94F909032E000C440B550B2652F2
:10114000310941095109A4E6B0E00E94180A2AEDCC
:101150003FEF4FEF5FEF0E94F90949015A0145E661
:1011600084169104A104B1042CF084E6882E912CFD
:10117000A12CB12CB7FE03C0812C912C540190926C
:1011800001018092000189E291E00E947304A501AF
:10119000940119A28E010F5D1F4FCA01B901A3016D
:1011A00092010E942B0A605DF80162938F01211564
:1011B00031054105510589F7CF01EF2B09F0B3C087
:1011C00082E391E00E94730410915F01111109C044
:1011D00011E08091000190910101853591050CF499
:1011E00010E080915A01811709F4F1C010935A015F
:1011F000112309F49BC0209259016AE570E08CE349
:1012000092E00E94B4038091550190915601A09103
:101210005701B09158010097A105B105D9F0A70178
:101220009601281B390B4A0B5B0BDA01C901803D83
:101230009740A105B10570F070E060E08FE392E0A7
:101240000E94B4031092550110925601109257015A
:1012500010925801112341F1809150019091510158
:10126000A0915201B0915301A7019601281B390B9F
:101270004A0B5B0BDA01C901209154012111AAC06C
:101280008C3B9240A105B10578F060E070E0CB01A5
:101290000E940A0120925401C0925001D092510143
:1012A000E0925201F092530180915901882331F16B
:1012B00080914C0190914D01A0914E01B0914F0150
:1012C000A7019601281B390B4A0B5B0BDA01C901F8
:1012D000843F9140A105B10588F060914B0141E048
:1012E000642760934B018CE00E948D00C0924C01FA
:1012F000D0924D01E0924E01F0924F0160E570E016
:1013000080E090E00E94490280E090E0892B09F49F
:101310009ACE0E941103882309F495CE0E94000002
:1013200092CE85E391E00E9473044ACF70E060E0C2
:101330008CE392E00E94B4038BE00E947B02109247
:1013400054011092590110924B0160E08CE00E9410
:101350008D0064E085E00E9480046150710981097C
:1013600091096F3071058105910508F04CCF80918E
:10137000550190915601A0915701B0915801A701D4
:101380009601281B390B4A0B5B0BDA01C901893B1B
:101390009B40A105B10508F436CF65E570E08FE309
:1013A00092E00E94B4032FB7F8948091610190916C
:1013B0006201A0916301B09164012FBF8093550138
:1013C00090935601A0935701B09358011CCF11116F
:1013D0001ACFBFCF8C329140A105B10508F464CF7C
:1013E0008BE00E947B021092540156CF89E191E07C
:1013F00053CE052E97FB1EF400940E94100A57FD51
:1014000007D00E942B0A07FC03D04EF40C94100A5C
:1014100050954095309521953F4F4F4F5F4F089520
:1014200090958095709561957F4F8F4F9F4F089550
:101430000E944D0AA59F900DB49F900DA49F800D12
:10144000911D11240895B7FF0C94180A0E94180AE0
:10145000821B930B0895A1E21A2EAA1BBB1BFD0150
:101460000DC0AA1FBB1FEE1FFF1FA217B307E40783
:10147000F50720F0A21BB30BE40BF50B661F771FDB
:10148000881F991F1A9469F76095709580959095BB
:101490009B01AC01BD01CF010895A29FB001B39F94
:1014A000C001A39F700D811D1124911DB29F700D6D
:1014B000811D1124911D08950E94630A6894B11141
:1014C0000C94F20A08950E94D70A88F09F5798F06A
:1014D000B92F9927B751B0F0E1F0660F771F881F39
:1014E000991F1AF0BA95C9F714C0B13091F00E9453
:1014F000F10AB1E008950C94F10A672F782F88273C
:10150000B85F39F0B93FCCF3869577956795B39579
:10151000D9F73EF490958095709561957F4F8F4FE8
:101520009F4F0895E89409C097FB3EF490958095ED
:10153000709561957F4F8F4F9F4F9923A9F0F92F99
:1015400096E9BB279395F695879577956795B79517
:10155000F111F8CFFAF4BB0F11F460FF1BC06F5FFD
:101560007F4F8F4F9F4F16C0882311F096E911C00F
:10157000772321F09EE8872F762F05C0662371F030
:1015800096E8862F70E060E02AF09A95660F771F44
:10159000881FDAF7880F9695879597F9089557FD74
:1015A0009058440F551F59F05F3F71F04795880FD1
:1015B00097FB991F61F09F3F79F087950895121668
:1015C00013061406551FF2CF4695F1DF08C0161614
:1015D00017061806991FF1CF8695710561050894C5
:1015E0000895E894BB2766277727CB0197F90895DC
:1015F0000E940B0B0C947C0B0E946E0B38F00E9427
:10160000750B20F0952311F00C94650B0C946B0B6B
:1016100011240C94F20A0E94CF0A70F3959FC1F333
:10162000950F50E0551F629FF001729FBB27F00D90
:10163000B11D639FAA27F00DB11DAA1F649F6627E5
:10164000B00DA11D661F829F2227B00DA11D621F34
:10165000739FB00DA11D621F839FA00D611D221FEE
:10166000749F3327A00D611D231F849F600D211DD2
:10167000822F762F6A2F11249F5750409AF0F1F055
:1016800088234AF0EE0FFF1FBB1F661F771F881FBE
:1016900091505040A9F79E3F510580F00C94650B86
:1016A0000C94F20A5F3FE4F3983ED4F38695779565
:1016B0006795B795F795E7959F5FC1F7FE2B880F64
:1016C000911D9695879597F9089597F99F6780E8FA
:1016D00070E060E008959FEF80EC089500240A9484
:1016E0001616170618060906089500240A941216FD
:1016F0001306140605060895092E0394000C11F430
:10170000882352F0BB0F40F4BF2B11F460FF04C0DC
:101710006F5F7F4F8F4F9F4F0895991B79E004C0F3
:10172000991F961708F0961B881F7A95C9F7809520
:101730000895EE0FFF1F0590F491E02D0994F894A1
:10174000FFCFFFFFFF000000004703A702D4029471
:10175000030503E302F7024F4646004F4E00466F73
:101760007263652066756C6C3A200046696C6C206B
:10177000253A20000D0A004C6576656C2073656E75
:0C178000736F72206E6F206563686F004D
:107E0000112484B714BE81FFF0D085E080938100F7
:107E100082E08093C00088E18093C10086E0809377
:107E2000C20080E18093C4008EE0C9D0259A86E02C
:107E300020E33CEF91E0309385002093840096BBD3
:107E4000B09BFECF1D9AA8958150A9F7CC24DD24C4
:107E500088248394B5E0AB2EA1E19A2EF3E0BF2EE7
:107E6000A2D0813461F49FD0082FAFD0023811F036
:107E7000013811F484E001C083E08DD089C08234E0
:107E800011F484E103C0853419F485E0A6D080C0E4
:107E9000853579F488D0E82EFF2485D0082F10E0AE
:107EA000102F00270E291F29000F111F8ED06801E7
:107EB0006FC0863521F484E090D080E0DECF843638
:107EC00009F040C070D06FD0082F6DD080E0C81688
:107ED00080E7D80618F4F601B7BEE895C0E0D1E017
:107EE00062D089930C17E1F7F0E0CF16F0E7DF06D8
:107EF00018F0F601B7BEE89568D007B600FCFDCFD4
:107F0000A601A0E0B1E02C9130E011968C91119780
:107F100090E0982F8827822B932B1296FA010C0160
:107F200087BEE89511244E5F5F4FF1E0A038BF0790
:107F300051F7F601A7BEE89507B600FCFDCF97BE46
:107F4000E89526C08437B1F42ED02DD0F82E2BD052
:107F50003CD0F601EF2C8F010F5F1F4F84911BD097
:107F6000EA94F801C1F70894C11CD11CFA94CF0C13
:107F7000D11C0EC0853739F428D08EE10CD085E9AC
:107F80000AD08FE07ACF813511F488E018D01DD067
:107F900080E101D065CF982F8091C00085FFFCCF94
:107FA0009093C60008958091C00087FFFCCF809118
:107FB000C00084FD01C0A8958091C6000895E0E648
:107FC000F0E098E1908380830895EDDF803219F02E
:107FD00088E0F5DFFFCF84E1DECF1F93182FE3DFCA
:107FE0001150E9F7F2DF1F91089580E0E8DFEE27F6
:047FF000FF270994CA
:027FFE00040479
:00000001FF
